{
  "contractName": "HufficornGame",
  "abi": [
    {
      "inputs": [
        {
          "internalType": "address",
          "name": "platform",
          "type": "address"
        }
      ],
      "stateMutability": "nonpayable",
      "type": "constructor"
    },
    {
      "inputs": [
        {
          "internalType": "address",
          "name": "",
          "type": "address"
        }
      ],
      "name": "userBalance",
      "outputs": [
        {
          "internalType": "uint256",
          "name": "",
          "type": "uint256"
        }
      ],
      "stateMutability": "view",
      "type": "function"
    },
    {
      "inputs": [],
      "name": "verifier",
      "outputs": [
        {
          "internalType": "contract Verifier",
          "name": "",
          "type": "address"
        }
      ],
      "stateMutability": "view",
      "type": "function"
    },
    {
      "inputs": [
        {
          "internalType": "uint256",
          "name": "tokenId",
          "type": "uint256"
        },
        {
          "internalType": "uint256",
          "name": "attributeNum",
          "type": "uint256"
        },
        {
          "internalType": "uint256",
          "name": "attributeValue",
          "type": "uint256"
        },
        {
          "internalType": "uint256",
          "name": "amount",
          "type": "uint256"
        }
      ],
      "name": "createGame",
      "outputs": [
        {
          "internalType": "uint256",
          "name": "",
          "type": "uint256"
        }
      ],
      "stateMutability": "payable",
      "type": "function"
    },
    {
      "inputs": [
        {
          "internalType": "uint256",
          "name": "gameId",
          "type": "uint256"
        },
        {
          "internalType": "uint256",
          "name": "tokenId",
          "type": "uint256"
        },
        {
          "internalType": "uint256",
          "name": "attributeValue",
          "type": "uint256"
        },
        {
          "internalType": "uint256[2]",
          "name": "a",
          "type": "uint256[2]"
        },
        {
          "internalType": "uint256[2][2]",
          "name": "b",
          "type": "uint256[2][2]"
        },
        {
          "internalType": "uint256[2]",
          "name": "c",
          "type": "uint256[2]"
        },
        {
          "internalType": "uint256[4]",
          "name": "_publicInputs",
          "type": "uint256[4]"
        }
      ],
      "name": "joinGame",
      "outputs": [
        {
          "internalType": "bool",
          "name": "",
          "type": "bool"
        }
      ],
      "stateMutability": "payable",
      "type": "function"
    },
    {
      "inputs": [
        {
          "internalType": "uint256",
          "name": "gameId",
          "type": "uint256"
        }
      ],
      "name": "finishGame",
      "outputs": [
        {
          "internalType": "bool",
          "name": "",
          "type": "bool"
        }
      ],
      "stateMutability": "nonpayable",
      "type": "function"
    },
    {
      "inputs": [],
      "name": "withdraw",
      "outputs": [],
      "stateMutability": "nonpayable",
      "type": "function"
    },
    {
      "inputs": [],
      "name": "getAllGames",
      "outputs": [
        {
          "components": [
            {
              "internalType": "uint256",
              "name": "gameId",
              "type": "uint256"
            },
            {
              "internalType": "uint256",
              "name": "tokenId",
              "type": "uint256"
            },
            {
              "internalType": "uint256",
              "name": "attributeNum",
              "type": "uint256"
            },
            {
              "internalType": "uint256",
              "name": "creatorAttributeValue",
              "type": "uint256"
            },
            {
              "internalType": "address",
              "name": "creator",
              "type": "address"
            },
            {
              "internalType": "uint256",
              "name": "poolMoney",
              "type": "uint256"
            },
            {
              "internalType": "bool",
              "name": "active",
              "type": "bool"
            }
          ],
          "internalType": "struct HufficornGame.Game[]",
          "name": "",
          "type": "tuple[]"
        }
      ],
      "stateMutability": "view",
      "type": "function"
    },
    {
      "inputs": [
        {
          "internalType": "uint256",
          "name": "gameId",
          "type": "uint256"
        }
      ],
      "name": "gameData",
      "outputs": [
        {
          "components": [
            {
              "internalType": "uint256",
              "name": "gameId",
              "type": "uint256"
            },
            {
              "internalType": "uint256",
              "name": "tokenId",
              "type": "uint256"
            },
            {
              "internalType": "uint256",
              "name": "attributeNum",
              "type": "uint256"
            },
            {
              "internalType": "uint256",
              "name": "creatorAttributeValue",
              "type": "uint256"
            },
            {
              "internalType": "address",
              "name": "creator",
              "type": "address"
            },
            {
              "internalType": "uint256",
              "name": "poolMoney",
              "type": "uint256"
            },
            {
              "internalType": "bool",
              "name": "active",
              "type": "bool"
            }
          ],
          "internalType": "struct HufficornGame.Game",
          "name": "",
          "type": "tuple"
        }
      ],
      "stateMutability": "view",
      "type": "function"
    },
    {
      "inputs": [],
      "name": "contractBalance",
      "outputs": [
        {
          "internalType": "uint256",
          "name": "",
          "type": "uint256"
        }
      ],
      "stateMutability": "view",
      "type": "function"
    }
  ],
  "bytecode": "0x60806040523480156200001157600080fd5b50604051620024f5380380620024f5833981810160405281019062000037919062000096565b80600260006101000a81548173ffffffffffffffffffffffffffffffffffffffff021916908373ffffffffffffffffffffffffffffffffffffffff1602179055505062000110565b6000815190506200009081620000f6565b92915050565b600060208284031215620000a957600080fd5b6000620000b9848285016200007f565b91505092915050565b6000620000cf82620000d6565b9050919050565b600073ffffffffffffffffffffffffffffffffffffffff82169050919050565b6200010181620000c2565b81146200010d57600080fd5b50565b6123d580620001206000396000f3fe6080604052600436106100a3576000357c010000000000000000000000000000000000000000000000000000000090048063bb039bef11610076578063bb039bef14610152578063bdaae1e714610182578063ccaf237f146101b2578063cfe186b2146101ef578063db1c45f91461022c576100a3565b80630103c92b146100a85780632b7ac3f3146100e55780633ccfd60b146101105780638b7afe2e14610127575b600080fd5b3480156100b457600080fd5b506100cf60048036038101906100ca91906116bc565b610257565b6040516100dc9190611dff565b60405180910390f35b3480156100f157600080fd5b506100fa61026f565b6040516101079190611d09565b60405180910390f35b34801561011c57600080fd5b50610125610293565b005b34801561013357600080fd5b5061013c6103e8565b6040516101499190611dff565b60405180910390f35b61016c60048036038101906101679190611737565b610407565b6040516101799190611cee565b60405180910390f35b61019c600480360381019061019791906117d8565b6107fb565b6040516101a99190611dff565b60405180910390f35b3480156101be57600080fd5b506101d960048036038101906101d4919061170e565b610ba7565b6040516101e69190611de4565b60405180910390f35b3480156101fb57600080fd5b506102166004803603810190610211919061170e565b610c77565b6040516102239190611cee565b60405180910390f35b34801561023857600080fd5b5061024161134e565b60405161024e9190611c85565b60405180910390f35b600a6020528060005260406000206000915090505481565b60008054906101000a900473ffffffffffffffffffffffffffffffffffffffff1681565b6000600a60003373ffffffffffffffffffffffffffffffffffffffff1673ffffffffffffffffffffffffffffffffffffffff1681526020019081526020016000205411610315576040517f08c379a000000000000000000000000000000000000000000000000000000000815260040161030c90611da4565b60405180910390fd5b6000600a60003373ffffffffffffffffffffffffffffffffffffffff1673ffffffffffffffffffffffffffffffffffffffff1681526020019081526020016000205490506000600a60003373ffffffffffffffffffffffffffffffffffffffff1673ffffffffffffffffffffffffffffffffffffffff168152602001908152602001600020819055503373ffffffffffffffffffffffffffffffffffffffff166108fc829081150290604051600060405180830381858888f193505050501580156103e4573d6000803e3d6000fd5b5050565b60003073ffffffffffffffffffffffffffffffffffffffff1631905090565b600080600660008a81526020019081526020016000206040518060e0016040529081600082015481526020016001820154815260200160028201548152602001600382015481526020016004820160009054906101000a900473ffffffffffffffffffffffffffffffffffffffff1673ffffffffffffffffffffffffffffffffffffffff1673ffffffffffffffffffffffffffffffffffffffff168152602001600582015481526020016006820160009054906101000a900460ff16151515158152505090508060a00151341015610514576040517f08c379a000000000000000000000000000000000000000000000000000000000815260040161050b90611d44565b60405180910390fd5b600115158160c0015115151461055f576040517f08c379a000000000000000000000000000000000000000000000000000000000815260040161055690611d84565b60405180910390fd5b60001515600760008a815260200190815260200160002060009054906101000a900460ff161515146105c6576040517f08c379a00000000000000000000000000000000000000000000000000000000081526004016105bd90611d64565b60405180910390fd5b6001151560008054906101000a900473ffffffffffffffffffffffffffffffffffffffff1673ffffffffffffffffffffffffffffffffffffffff16635fe8c13b888888886040518563ffffffff167c01000000000000000000000000000000000000000000000000000000000281526004016106459493929190611ca7565b60206040518083038186803b15801561065d57600080fd5b505afa158015610671573d6000803e3d6000fd5b505050506040513d601f19601f8201168201806040525081019061069591906116e5565b1515146106d7576040517f08c379a00000000000000000000000000000000000000000000000000000000081526004016106ce90611d24565b60405180910390fd5b600460008a8152602001908152602001600020339080600181540180825580915050600190039060005260206000200160009091909190916101000a81548173ffffffffffffffffffffffffffffffffffffffff021916908373ffffffffffffffffffffffffffffffffffffffff160217905550600560008a81526020019081526020016000208790806001815401808255809150506001900390600052602060002001600090919091909150556001600760008a815260200190815260200160002060006101000a81548160ff021916908315150217905550600960008a81526020019081526020016000208890806001815401808255809150506001900390600052602060002001600090919091909150556001915050979650505050505050565b60006108076001611450565b60006108136001611466565b905082341015610858576040517f08c379a000000000000000000000000000000000000000000000000000000000815260040161084f90611dc4565b60405180910390fd5b600015156007600088815260200190815260200160002060009054906101000a900460ff161515146108bf576040517f08c379a00000000000000000000000000000000000000000000000000000000081526004016108b690611d64565b60405180910390fd5b60006040518060e001604052808381526020018881526020018781526020018681526020013373ffffffffffffffffffffffffffffffffffffffff16815260200134815260200160011515815250905080600660008481526020019081526020016000206000820151816000015560208201518160010155604082015181600201556060820151816003015560808201518160040160006101000a81548173ffffffffffffffffffffffffffffffffffffffff021916908373ffffffffffffffffffffffffffffffffffffffff16021790555060a0820151816005015560c08201518160060160006101000a81548160ff02191690831515021790555090505060016007600089815260200190815260200160002060006101000a81548160ff02191690831515021790555060046000838152602001908152602001600020339080600181540180825580915050600190039060005260206000200160009091909190916101000a81548173ffffffffffffffffffffffffffffffffffffffff021916908373ffffffffffffffffffffffffffffffffffffffff160217905550600560008381526020019081526020016000208590806001815401808255809150506001900390600052602060002001600090919091909150556009600083815260200190815260200160002087908060018154018082558091505060019003906000526020600020016000909190919091505560038190806001815401808255809150506001900390600052602060002090600702016000909190919091506000820151816000015560208201518160010155604082015181600201556060820151816003015560808201518160040160006101000a81548173ffffffffffffffffffffffffffffffffffffffff021916908373ffffffffffffffffffffffffffffffffffffffff16021790555060a0820151816005015560c08201518160060160006101000a81548160ff02191690831515021790555050508192505050949350505050565b610baf61148a565b600660008381526020019081526020016000206040518060e0016040529081600082015481526020016001820154815260200160028201548152602001600382015481526020016004820160009054906101000a900473ffffffffffffffffffffffffffffffffffffffff1673ffffffffffffffffffffffffffffffffffffffff1673ffffffffffffffffffffffffffffffffffffffff168152602001600582015481526020016006820160009054906101000a900460ff1615151515815250509050919050565b600080600460008481526020019081526020016000208054905090506000600660008581526020019081526020016000206040518060e0016040529081600082015481526020016001820154815260200160028201548152602001600382015481526020016004820160009054906101000a900473ffffffffffffffffffffffffffffffffffffffff1673ffffffffffffffffffffffffffffffffffffffff1673ffffffffffffffffffffffffffffffffffffffff168152602001600582015481526020016006820160009054906101000a900460ff1615151515815250509050600115158160c00151151514610da3576040517f08c379a0000000000000000000000000000000000000000000000000000000008152600401610d9a90611d84565b60405180910390fd5b60008160600151905060005b83811015610f015781600560008881526020019081526020016000208281548110610e03577f4e487b7100000000000000000000000000000000000000000000000000000000600052603260045260246000fd5b90600052602060002001541115610e6d57600560008781526020019081526020016000208181548110610e5f577f4e487b7100000000000000000000000000000000000000000000000000000000600052603260045260246000fd5b906000526020600020015491505b600060076000600960008a81526020019081526020016000208481548110610ebe577f4e487b7100000000000000000000000000000000000000000000000000000000600052603260045260246000fd5b9060005260206000200154815260200190815260200160002060006101000a81548160ff0219169083151502179055508080610ef99061210b565b915050610daf565b5060005b838110156110675781600560008881526020019081526020016000208281548110610f59577f4e487b7100000000000000000000000000000000000000000000000000000000600052603260045260246000fd5b906000526020600020015414156110545760086000878152602001908152602001600020600460008881526020019081526020016000208281548110610fc8577f4e487b7100000000000000000000000000000000000000000000000000000000600052603260045260246000fd5b9060005260206000200160009054906101000a900473ffffffffffffffffffffffffffffffffffffffff169080600181540180825580915050600190039060005260206000200160009091909190916101000a81548173ffffffffffffffffffffffffffffffffffffffff021916908373ffffffffffffffffffffffffffffffffffffffff1602179055505b808061105f9061210b565b915050610f05565b506000600860008781526020019081526020016000208054905090506000605a8260646110949190612014565b8560a001516110a39190611fe3565b866110ae9190612014565b6110b89190612014565b90506000600a60648660a001516110cf9190611fe3565b876110da9190612014565b6110e49190612014565b905060005b83811015611283576111b883600a6000600860008e81526020019081526020016000208581548110611144577f4e487b7100000000000000000000000000000000000000000000000000000000600052603260045260246000fd5b9060005260206000200160009054906101000a900473ffffffffffffffffffffffffffffffffffffffff1673ffffffffffffffffffffffffffffffffffffffff1673ffffffffffffffffffffffffffffffffffffffff1681526020019081526020016000205461147490919063ffffffff16565b600a6000600860008d81526020019081526020016000208481548110611207577f4e487b7100000000000000000000000000000000000000000000000000000000600052603260045260246000fd5b9060005260206000200160009054906101000a900473ffffffffffffffffffffffffffffffffffffffff1673ffffffffffffffffffffffffffffffffffffffff1673ffffffffffffffffffffffffffffffffffffffff16815260200190815260200160002081905550808061127b9061210b565b9150506110e9565b50600015158560c00151505084600660008a81526020019081526020016000206000820151816000015560208201518160010155604082015181600201556060820151816003015560808201518160040160006101000a81548173ffffffffffffffffffffffffffffffffffffffff021916908373ffffffffffffffffffffffffffffffffffffffff16021790555060a0820151816005015560c08201518160060160006101000a81548160ff02191690831515021790555090505060019650505050505050919050565b60606003805480602002602001604051908101604052809291908181526020016000905b8282101561144757838290600052602060002090600702016040518060e0016040529081600082015481526020016001820154815260200160028201548152602001600382015481526020016004820160009054906101000a900473ffffffffffffffffffffffffffffffffffffffff1673ffffffffffffffffffffffffffffffffffffffff1673ffffffffffffffffffffffffffffffffffffffff168152602001600582015481526020016006820160009054906101000a900460ff16151515158152505081526020019060010190611372565b50505050905090565b6001816000016000828254019250508190555050565b600081600001549050919050565b600081836114829190611f8d565b905092915050565b6040518060e0016040528060008152602001600081526020016000815260200160008152602001600073ffffffffffffffffffffffffffffffffffffffff168152602001600081526020016000151581525090565b60006114f26114ed84611e3f565b611e1a565b9050808285604086028201111561150857600080fd5b60005b85811015611538578161151e8882611644565b84526020840193506040830192505060018101905061150b565b5050509392505050565b600061155561155084611e65565b611e1a565b9050808285602086028201111561156b57600080fd5b60005b8581101561159b578161158188826116a7565b84526020840193506020830192505060018101905061156e565b5050509392505050565b60006115b86115b384611e8b565b611e1a565b905080828560208602820111156115ce57600080fd5b60005b858110156115fe57816115e488826116a7565b8452602084019350602083019250506001810190506115d1565b5050509392505050565b6000813590506116178161235a565b92915050565b600082601f83011261162e57600080fd5b600261163b8482856114df565b91505092915050565b600082601f83011261165557600080fd5b6002611662848285611542565b91505092915050565b600082601f83011261167c57600080fd5b60046116898482856115a5565b91505092915050565b6000815190506116a181612371565b92915050565b6000813590506116b681612388565b92915050565b6000602082840312156116ce57600080fd5b60006116dc84828501611608565b91505092915050565b6000602082840312156116f757600080fd5b600061170584828501611692565b91505092915050565b60006020828403121561172057600080fd5b600061172e848285016116a7565b91505092915050565b60008060008060008060006101e0888a03121561175357600080fd5b60006117618a828b016116a7565b97505060206117728a828b016116a7565b96505060406117838a828b016116a7565b95505060606117948a828b01611644565b94505060a06117a58a828b0161161d565b9350506101206117b78a828b01611644565b9250506101606117c98a828b0161166b565b91505092959891949750929550565b600080600080608085870312156117ee57600080fd5b60006117fc878288016116a7565b945050602061180d878288016116a7565b935050604061181e878288016116a7565b925050606061182f878288016116a7565b91505092959194509250565b60006118478383611947565b60408301905092915050565b600061185f8383611b4b565b60e08301905092915050565b60006118778383611c67565b60208301905092915050565b61188c8161206e565b82525050565b61189b81611edf565b6118a58184611f3f565b92506118b082611eb1565b8060005b838110156118e15781516118c8878261183b565b96506118d383611f0b565b9250506001810190506118b4565b505050505050565b60006118f482611eea565b6118fe8185611f4a565b935061190983611ebb565b8060005b8381101561193a5781516119218882611853565b975061192c83611f18565b92505060018101905061190d565b5085935050505092915050565b61195081611ef5565b61195a8184611f5b565b925061196582611ecb565b8060005b8381101561199657815161197d878261186b565b965061198883611f25565b925050600181019050611969565b505050505050565b6119a781611ef5565b6119b18184611f66565b92506119bc82611ecb565b8060005b838110156119ed5781516119d4878261186b565b96506119df83611f25565b9250506001810190506119c0565b505050505050565b6119fe81611f00565b611a088184611f71565b9250611a1382611ed5565b8060005b83811015611a44578151611a2b878261186b565b9650611a3683611f32565b925050600181019050611a17565b505050505050565b611a5581612080565b82525050565b611a6481612080565b82525050565b611a73816120b6565b82525050565b6000611a86601783611f7c565b9150611a91826121f2565b602082019050919050565b6000611aa9602283611f7c565b9150611ab48261221b565b604082019050919050565b6000611acc602883611f7c565b9150611ad78261226a565b604082019050919050565b6000611aef601a83611f7c565b9150611afa826122b9565b602082019050919050565b6000611b12601683611f7c565b9150611b1d826122e2565b602082019050919050565b6000611b35602283611f7c565b9150611b408261230b565b604082019050919050565b60e082016000820151611b616000850182611c67565b506020820151611b746020850182611c67565b506040820151611b876040850182611c67565b506060820151611b9a6060850182611c67565b506080820151611bad6080850182611883565b5060a0820151611bc060a0850182611c67565b5060c0820151611bd360c0850182611a4c565b50505050565b60e082016000820151611bef6000850182611c67565b506020820151611c026020850182611c67565b506040820151611c156040850182611c67565b506060820151611c286060850182611c67565b506080820151611c3b6080850182611883565b5060a0820151611c4e60a0850182611c67565b5060c0820151611c6160c0850182611a4c565b50505050565b611c70816120ac565b82525050565b611c7f816120ac565b82525050565b60006020820190508181036000830152611c9f81846118e9565b905092915050565b600061018082019050611cbd600083018761199e565b611cca6040830186611892565b611cd760c083018561199e565b611ce56101008301846119f5565b95945050505050565b6000602082019050611d036000830184611a5b565b92915050565b6000602082019050611d1e6000830184611a6a565b92915050565b60006020820190508181036000830152611d3d81611a79565b9050919050565b60006020820190508181036000830152611d5d81611a9c565b9050919050565b60006020820190508181036000830152611d7d81611abf565b9050919050565b60006020820190508181036000830152611d9d81611ae2565b9050919050565b60006020820190508181036000830152611dbd81611b05565b9050919050565b60006020820190508181036000830152611ddd81611b28565b9050919050565b600060e082019050611df96000830184611bd9565b92915050565b6000602082019050611e146000830184611c76565b92915050565b6000611e24611e35565b9050611e3082826120da565b919050565b6000604051905090565b600067ffffffffffffffff821115611e5a57611e596121b2565b5b602082029050919050565b600067ffffffffffffffff821115611e8057611e7f6121b2565b5b602082029050919050565b600067ffffffffffffffff821115611ea657611ea56121b2565b5b602082029050919050565b6000819050919050565b6000819050602082019050919050565b6000819050919050565b6000819050919050565b600060029050919050565b600081519050919050565b600060029050919050565b600060049050919050565b6000602082019050919050565b6000602082019050919050565b6000602082019050919050565b6000602082019050919050565b600081905092915050565b600082825260208201905092915050565b600081905092915050565b600081905092915050565b600081905092915050565b600082825260208201905092915050565b6000611f98826120ac565b9150611fa3836120ac565b9250827fffffffffffffffffffffffffffffffffffffffffffffffffffffffffffffffff03821115611fd857611fd7612154565b5b828201905092915050565b6000611fee826120ac565b9150611ff9836120ac565b92508261200957612008612183565b5b828204905092915050565b600061201f826120ac565b915061202a836120ac565b9250817fffffffffffffffffffffffffffffffffffffffffffffffffffffffffffffffff048311821515161561206357612062612154565b5b828202905092915050565b60006120798261208c565b9050919050565b60008115159050919050565b600073ffffffffffffffffffffffffffffffffffffffff82169050919050565b6000819050919050565b60006120c1826120c8565b9050919050565b60006120d38261208c565b9050919050565b6120e3826121e1565b810181811067ffffffffffffffff82111715612102576121016121b2565b5b80604052505050565b6000612116826120ac565b91507fffffffffffffffffffffffffffffffffffffffffffffffffffffffffffffffff82141561214957612148612154565b5b600182019050919050565b7f4e487b7100000000000000000000000000000000000000000000000000000000600052601160045260246000fd5b7f4e487b7100000000000000000000000000000000000000000000000000000000600052601260045260246000fd5b7f4e487b7100000000000000000000000000000000000000000000000000000000600052604160045260246000fd5b6000601f19601f8301169050919050565b7f496e76616c6964206174747269627574652076616c7565000000000000000000600082015250565b7f4e6f7420656e6f75676820616d6f756e7420746f206a6f696e2074686520676160008201527f6d65000000000000000000000000000000000000000000000000000000000000602082015250565b7f546f6b656e20494420697320616c7265616479207573656420696e20616e6f7460008201527f6865722067616d65000000000000000000000000000000000000000000000000602082015250565b7f47616d65206973206e6f742061637469766520616e796d6f7265000000000000600082015250565b7f4e6f2062616c616e636520746f20776974686472617700000000000000000000600082015250565b7f4e6f7420656e6f75676820616d6f756e7420746f20637265617465206120676160008201527f6d65000000000000000000000000000000000000000000000000000000000000602082015250565b6123638161206e565b811461236e57600080fd5b50565b61237a81612080565b811461238557600080fd5b50565b612391816120ac565b811461239c57600080fd5b5056fea264697066735822122082c9c9de28d45eb4e84a73d987e7a8ead5f6eb2ee0e0661e3ddcf4082f4db7b764736f6c63430008040033",
  "immutableReferences": {},
  "source": "// SPDX-License-Identifier: MIT\npragma solidity ^0.8.4;\n\nimport \"@openzeppelin/contracts/token/ERC721/extensions/ERC721URIStorage.sol\";\nimport \"@openzeppelin/contracts/token/ERC721/ERC721.sol\";\nimport \"@openzeppelin/contracts/access/Ownable.sol\";\nimport \"@openzeppelin/contracts/utils/Counters.sol\";\nimport \"@openzeppelin/contracts/security/ReentrancyGuard.sol\";\nimport \"@openzeppelin/contracts/utils/math/SafeMath.sol\";\nimport \"./verifier.sol\";\n\ncontract Hufficorn is  ERC721URIStorage, Ownable, ReentrancyGuard{\n    \n    Verifier public verifier;\n    string baseURI;\n    uint256 tokenSupply;\n    using Counters for Counters.Counter;\n\n    Counters.Counter private tokenCount;\n\n    address platform;\n\n    struct NFTData {\n        uint tokenId;\n        string tokenURI;\n        address tokenOwner;\n    }\n\n    NFTData[] nftData;\n    mapping(address => uint) ownerMapping;\n    mapping(address => NFTData) nftTokenMap;\n\n\n    event Minted(address owner, uint numTokens);\n    event Sold(uint tokenId, uint salePrice);\n    event OwnershipGranted(address newOwner);\n\n    modifier onlyTokenOwner(uint tokenId) {\n        require(msg.sender == ownerOf(tokenId), \"Only token owner can call this function\");\n        _;\n    }\n\n    constructor (\n        string memory baseTokenURI\n    ) ERC721(\"Hufficorn\", \"HUFF\") {\n        baseURI = baseTokenURI;\n        platform = msg.sender;\n    }\n\n    /**\n     * @dev Base URI for computing {tokenURI}. If set, the resulting URI for each\n     * token will be the concatenation of the `baseURI` and the `tokenId`. Empty\n     * by default, can be overriden in child contracts.\n     */\n    function _baseURI() internal view virtual override returns (string memory) {\n        return baseURI;\n    }\n\n    function setTotalSupply( uint256 _totalSupply) public returns(uint256){\n        tokenSupply = _totalSupply;\n        return tokenSupply;\n    }\n\n    function totalSupply() public view returns(uint256) {\n       return tokenSupply;\n    }\n    /*\n        Mint Hufficorns.\n        @dev: \n    */\n    function mintHufficorn(string memory tokenMetadata) public {\n        tokenCount.increment();\n        uint256 tokenId = tokenCount.current();\n        require(tokenId <= totalSupply(), \"All the Hufficons have been minted\");\n\n        require(ownerMapping[msg.sender] == 0, \"Owner has already minted\");\n\n        _safeMint(msg.sender, tokenId);\n        _setTokenURI(tokenId, tokenMetadata);\n            \n        NFTData memory nft = NFTData(tokenId, tokenURI(tokenId), msg.sender);\n        ownerMapping[msg.sender] = tokenId;\n        nftTokenMap[msg.sender] = nft;\n        nftData.push(nft);\n\n        emit Minted(msg.sender, tokenId);\n        \n    }\n\n    /* Get the total number of Hufficorns\n    */\n    function getTotalMintedHufficorn() external view returns(uint256) {\n        return totalSupply();\n    }\n\n    /**\n    * @dev Owner can transfer the ownership of the contract to a new account (`_grantedOwner`).\n    * Can only be called by the current owner.\n    */\n    function grantContractOwnership(address newOwner) public virtual onlyOwner {\n        require(newOwner != address(0), \"New owner cannot be zero address\");\n        _transferOwnership(newOwner);\n        emit OwnershipGranted(newOwner);\n    }\n\n    /*\n    */\n    function getOwnerNft() public view returns(NFTData memory tokenMap) {\n        return nftTokenMap[msg.sender];\n    }\n\n}\n\ncontract HufficornGame {\n\n    using SafeMath for uint;\n\n    Verifier public verifier;\n    using Counters for Counters.Counter;\n    Counters.Counter private gameIds;\n    address _platform;\n\n    struct Game {\n        uint256 gameId;\n        uint256 tokenId;\n        uint256 attributeNum;\n        uint256 creatorAttributeValue;\n        address creator;\n        uint256 poolMoney;\n        bool active;\n    }\n\n    Game[] games;\n\n    mapping(uint256 => address[]) gamePlayers;\n    mapping(uint256 => uint256[]) attributePoints;\n    mapping(uint256 => Game) gameMap;\n    mapping(uint256 => bool) tokenInUse;\n    mapping(uint256 => address[]) winnerList;\n    mapping(uint256 => uint256[]) tokensPerGame;\n    mapping(address => uint256) public userBalance;\n\n    constructor(address platform) {\n        _platform = platform;\n    }\n\n    function createGame(uint256 tokenId, uint256 attributeNum, uint256 attributeValue, uint256 amount) public payable returns(uint256) {\n        gameIds.increment();\n        uint256 gameId = gameIds.current();\n\n        require(msg.value >= amount, \"Not enough amount to create a game\");\n        require(tokenInUse[tokenId] == false, \"Token ID is already used in another game\");\n\n\n        Game memory newGame = Game(gameId, tokenId, attributeNum, attributeValue, msg.sender, msg.value ,true);\n        gameMap[gameId] = newGame;\n\n        tokenInUse[tokenId] = true;\n\n        gamePlayers[gameId].push(msg.sender);\n        attributePoints[gameId].push(attributeValue);\n        tokensPerGame[gameId].push(tokenId);\n        games.push(newGame);\n\n        return gameId;\n\n    }\n\n\n    function joinGame(uint256 gameId, uint256 tokenId, uint256 attributeValue,  uint256[2] memory a, uint256[2][2] memory b, uint256[2] memory c, uint256[4] memory _publicInputs) public payable returns(bool) {\n        Game memory game = gameMap[gameId];\n     \n        require(msg.value >= game.poolMoney, \"Not enough amount to join the game\");\n        require(game.active == true, \"Game is not active anymore\");\n        require(tokenInUse[tokenId] == false, \"Token ID is already used in another game\");\n        require(verifier.verifyProof(a, b, c, _publicInputs) == true, \"Invalid attribute value\");\n\n        gamePlayers[gameId].push(msg.sender);\n        attributePoints[gameId].push(attributeValue);\n        tokenInUse[tokenId] = true;\n        tokensPerGame[gameId].push(tokenId);\n    \n        return true;\n\n    }\n\n    function finishGame(uint256 gameId) public returns(bool) {\n\n        uint256 totalPlayers = gamePlayers[gameId].length;\n        Game memory currentGame = gameMap[gameId];\n\n        require(currentGame.active == true, \"Game is not active anymore\");\n\n        uint256 maxValue = currentGame.creatorAttributeValue;\n        \n        /*\n        1. Finding out the maximum attribute value\n        2. Changing the token in use status to false for all the participating tokens.\n        */\n        for(uint256 i = 0; i < totalPlayers; i++) {\n            if(attributePoints[gameId][i] > maxValue){\n                maxValue = attributePoints[gameId][i];\n            }\n            tokenInUse[tokensPerGame[gameId][i]] = false;\n        }\n\n        for(uint256 i = 0; i < totalPlayers; i++) {\n            if(attributePoints[gameId][i] == maxValue) {\n                winnerList[gameId].push(gamePlayers[gameId][i]);\n            }\n        }\n\n        uint256 totalNumWinners =  winnerList[gameId].length;\n        uint256 winningAmountPerWinner =  (totalPlayers)*(currentGame.poolMoney/(100*totalNumWinners))*(90);\n        uint256 platformFee = (totalPlayers)*(currentGame.poolMoney/100)*(10);\n\n\n        //Settlement for winners and platform - 10% fees to platform\n        for(uint256 i = 0; i < totalNumWinners; i++){\n            userBalance[winnerList[gameId][i]] = userBalance[winnerList[gameId][i]].add(winningAmountPerWinner);\n            // payable(winnerList[gameId][i]).transfer(winningAmountPerWinner);\n        }\n\n        // payable(_platform).transfer(platformFee);\n\n        currentGame.active == false;\n        gameMap[gameId] = currentGame;\n\n        return true;\n\n    }\n\n        function withdraw() public {\n        require(userBalance[msg.sender] > 0, \"No balance to withdraw\");\n        uint val = userBalance[msg.sender];\n        userBalance[msg.sender] = 0;\n        payable(address(uint160(msg.sender))).transfer(val);\n    }\n\n    function getAllGames() public view returns(Game[] memory) {\n            return games;\n    }\n\n    function gameData(uint256 gameId) public view returns(Game memory) {\n        return gameMap[gameId];\n    }\n\n    function contractBalance() public view returns(uint) {\n        return address(this).balance;\n    }\n}\n\n",
  "sourcePath": "/Users/riyasingh/myapps/battleofhufficorns/packages/contracts/contracts/Hufficorn.sol",
  "compiler": {
    "name": "solc",
    "version": "0.8.4+commit.c7e474f2.Emscripten.clang"
  },
  "schemaVersion": "3.2.3",
  "updatedAt": "2022-02-20T14:16:11.202Z",
  "devdoc": {
    "kind": "dev",
    "methods": {},
    "version": 1
  },
  "userdoc": {
    "kind": "user",
    "methods": {},
    "version": 1
  }
}