{
  "contractName": "Hufficorn",
  "abi": [
    {
      "inputs": [
        {
          "internalType": "string",
          "name": "baseTokenURI",
          "type": "string"
        }
      ],
      "stateMutability": "nonpayable",
      "type": "constructor"
    },
    {
      "anonymous": false,
      "inputs": [
        {
          "indexed": true,
          "internalType": "address",
          "name": "owner",
          "type": "address"
        },
        {
          "indexed": true,
          "internalType": "address",
          "name": "approved",
          "type": "address"
        },
        {
          "indexed": true,
          "internalType": "uint256",
          "name": "tokenId",
          "type": "uint256"
        }
      ],
      "name": "Approval",
      "type": "event"
    },
    {
      "anonymous": false,
      "inputs": [
        {
          "indexed": true,
          "internalType": "address",
          "name": "owner",
          "type": "address"
        },
        {
          "indexed": true,
          "internalType": "address",
          "name": "operator",
          "type": "address"
        },
        {
          "indexed": false,
          "internalType": "bool",
          "name": "approved",
          "type": "bool"
        }
      ],
      "name": "ApprovalForAll",
      "type": "event"
    },
    {
      "anonymous": false,
      "inputs": [
        {
          "indexed": false,
          "internalType": "address",
          "name": "owner",
          "type": "address"
        },
        {
          "indexed": false,
          "internalType": "uint256",
          "name": "numTokens",
          "type": "uint256"
        }
      ],
      "name": "Minted",
      "type": "event"
    },
    {
      "anonymous": false,
      "inputs": [
        {
          "indexed": false,
          "internalType": "address",
          "name": "newOwner",
          "type": "address"
        }
      ],
      "name": "OwnershipGranted",
      "type": "event"
    },
    {
      "anonymous": false,
      "inputs": [
        {
          "indexed": true,
          "internalType": "address",
          "name": "previousOwner",
          "type": "address"
        },
        {
          "indexed": true,
          "internalType": "address",
          "name": "newOwner",
          "type": "address"
        }
      ],
      "name": "OwnershipTransferred",
      "type": "event"
    },
    {
      "anonymous": false,
      "inputs": [
        {
          "indexed": false,
          "internalType": "uint256",
          "name": "tokenId",
          "type": "uint256"
        },
        {
          "indexed": false,
          "internalType": "uint256",
          "name": "salePrice",
          "type": "uint256"
        }
      ],
      "name": "Sold",
      "type": "event"
    },
    {
      "anonymous": false,
      "inputs": [
        {
          "indexed": true,
          "internalType": "address",
          "name": "from",
          "type": "address"
        },
        {
          "indexed": true,
          "internalType": "address",
          "name": "to",
          "type": "address"
        },
        {
          "indexed": true,
          "internalType": "uint256",
          "name": "tokenId",
          "type": "uint256"
        }
      ],
      "name": "Transfer",
      "type": "event"
    },
    {
      "inputs": [
        {
          "internalType": "address",
          "name": "to",
          "type": "address"
        },
        {
          "internalType": "uint256",
          "name": "tokenId",
          "type": "uint256"
        }
      ],
      "name": "approve",
      "outputs": [],
      "stateMutability": "nonpayable",
      "type": "function"
    },
    {
      "inputs": [
        {
          "internalType": "address",
          "name": "owner",
          "type": "address"
        }
      ],
      "name": "balanceOf",
      "outputs": [
        {
          "internalType": "uint256",
          "name": "",
          "type": "uint256"
        }
      ],
      "stateMutability": "view",
      "type": "function"
    },
    {
      "inputs": [
        {
          "internalType": "uint256",
          "name": "tokenId",
          "type": "uint256"
        }
      ],
      "name": "getApproved",
      "outputs": [
        {
          "internalType": "address",
          "name": "",
          "type": "address"
        }
      ],
      "stateMutability": "view",
      "type": "function"
    },
    {
      "inputs": [
        {
          "internalType": "address",
          "name": "owner",
          "type": "address"
        },
        {
          "internalType": "address",
          "name": "operator",
          "type": "address"
        }
      ],
      "name": "isApprovedForAll",
      "outputs": [
        {
          "internalType": "bool",
          "name": "",
          "type": "bool"
        }
      ],
      "stateMutability": "view",
      "type": "function"
    },
    {
      "inputs": [],
      "name": "name",
      "outputs": [
        {
          "internalType": "string",
          "name": "",
          "type": "string"
        }
      ],
      "stateMutability": "view",
      "type": "function"
    },
    {
      "inputs": [],
      "name": "owner",
      "outputs": [
        {
          "internalType": "address",
          "name": "",
          "type": "address"
        }
      ],
      "stateMutability": "view",
      "type": "function"
    },
    {
      "inputs": [
        {
          "internalType": "uint256",
          "name": "tokenId",
          "type": "uint256"
        }
      ],
      "name": "ownerOf",
      "outputs": [
        {
          "internalType": "address",
          "name": "",
          "type": "address"
        }
      ],
      "stateMutability": "view",
      "type": "function"
    },
    {
      "inputs": [],
      "name": "renounceOwnership",
      "outputs": [],
      "stateMutability": "nonpayable",
      "type": "function"
    },
    {
      "inputs": [
        {
          "internalType": "address",
          "name": "from",
          "type": "address"
        },
        {
          "internalType": "address",
          "name": "to",
          "type": "address"
        },
        {
          "internalType": "uint256",
          "name": "tokenId",
          "type": "uint256"
        }
      ],
      "name": "safeTransferFrom",
      "outputs": [],
      "stateMutability": "nonpayable",
      "type": "function"
    },
    {
      "inputs": [
        {
          "internalType": "address",
          "name": "from",
          "type": "address"
        },
        {
          "internalType": "address",
          "name": "to",
          "type": "address"
        },
        {
          "internalType": "uint256",
          "name": "tokenId",
          "type": "uint256"
        },
        {
          "internalType": "bytes",
          "name": "_data",
          "type": "bytes"
        }
      ],
      "name": "safeTransferFrom",
      "outputs": [],
      "stateMutability": "nonpayable",
      "type": "function"
    },
    {
      "inputs": [
        {
          "internalType": "address",
          "name": "operator",
          "type": "address"
        },
        {
          "internalType": "bool",
          "name": "approved",
          "type": "bool"
        }
      ],
      "name": "setApprovalForAll",
      "outputs": [],
      "stateMutability": "nonpayable",
      "type": "function"
    },
    {
      "inputs": [
        {
          "internalType": "bytes4",
          "name": "interfaceId",
          "type": "bytes4"
        }
      ],
      "name": "supportsInterface",
      "outputs": [
        {
          "internalType": "bool",
          "name": "",
          "type": "bool"
        }
      ],
      "stateMutability": "view",
      "type": "function"
    },
    {
      "inputs": [],
      "name": "symbol",
      "outputs": [
        {
          "internalType": "string",
          "name": "",
          "type": "string"
        }
      ],
      "stateMutability": "view",
      "type": "function"
    },
    {
      "inputs": [
        {
          "internalType": "uint256",
          "name": "tokenId",
          "type": "uint256"
        }
      ],
      "name": "tokenURI",
      "outputs": [
        {
          "internalType": "string",
          "name": "",
          "type": "string"
        }
      ],
      "stateMutability": "view",
      "type": "function"
    },
    {
      "inputs": [
        {
          "internalType": "address",
          "name": "from",
          "type": "address"
        },
        {
          "internalType": "address",
          "name": "to",
          "type": "address"
        },
        {
          "internalType": "uint256",
          "name": "tokenId",
          "type": "uint256"
        }
      ],
      "name": "transferFrom",
      "outputs": [],
      "stateMutability": "nonpayable",
      "type": "function"
    },
    {
      "inputs": [
        {
          "internalType": "address",
          "name": "newOwner",
          "type": "address"
        }
      ],
      "name": "transferOwnership",
      "outputs": [],
      "stateMutability": "nonpayable",
      "type": "function"
    },
    {
      "inputs": [],
      "name": "verifier",
      "outputs": [
        {
          "internalType": "contract Verifier",
          "name": "",
          "type": "address"
        }
      ],
      "stateMutability": "view",
      "type": "function"
    },
    {
      "inputs": [
        {
          "internalType": "uint256",
          "name": "_totalSupply",
          "type": "uint256"
        }
      ],
      "name": "setTotalSupply",
      "outputs": [
        {
          "internalType": "uint256",
          "name": "",
          "type": "uint256"
        }
      ],
      "stateMutability": "nonpayable",
      "type": "function"
    },
    {
      "inputs": [],
      "name": "totalSupply",
      "outputs": [
        {
          "internalType": "uint256",
          "name": "",
          "type": "uint256"
        }
      ],
      "stateMutability": "view",
      "type": "function"
    },
    {
      "inputs": [
        {
          "internalType": "string",
          "name": "tokenMetadata",
          "type": "string"
        }
      ],
      "name": "mintHufficorn",
      "outputs": [],
      "stateMutability": "nonpayable",
      "type": "function"
    },
    {
      "inputs": [],
      "name": "getTotalMintedHufficorn",
      "outputs": [
        {
          "internalType": "uint256",
          "name": "",
          "type": "uint256"
        }
      ],
      "stateMutability": "view",
      "type": "function"
    },
    {
      "inputs": [
        {
          "internalType": "address",
          "name": "newOwner",
          "type": "address"
        }
      ],
      "name": "grantContractOwnership",
      "outputs": [],
      "stateMutability": "nonpayable",
      "type": "function"
    },
    {
      "inputs": [],
      "name": "getOwnerNft",
      "outputs": [
        {
          "components": [
            {
              "internalType": "uint256",
              "name": "tokenId",
              "type": "uint256"
            },
            {
              "internalType": "string",
              "name": "tokenURI",
              "type": "string"
            },
            {
              "internalType": "address",
              "name": "tokenOwner",
              "type": "address"
            }
          ],
          "internalType": "struct Hufficorn.NFTData",
          "name": "tokenMap",
          "type": "tuple"
        }
      ],
      "stateMutability": "view",
      "type": "function"
    }
  ],
  "bytecode": "0x60806040523480156200001157600080fd5b5060405162003f6338038062003f63833981810160405281019062000037919062000362565b6040518060400160405280600981526020017f4875666669636f726e00000000000000000000000000000000000000000000008152506040518060400160405280600481526020017f48554646000000000000000000000000000000000000000000000000000000008152508160009080519060200190620000bb92919062000240565b508060019080519060200190620000d492919062000240565b50505062000109620000f462000172640100000000026401000000009004565b6200017a640100000000026401000000009004565b600160088190555080600a90805190602001906200012992919062000240565b5033600d60006101000a81548173ffffffffffffffffffffffffffffffffffffffff021916908373ffffffffffffffffffffffffffffffffffffffff1602179055505062000517565b600033905090565b6000600760009054906101000a900473ffffffffffffffffffffffffffffffffffffffff16905081600760006101000a81548173ffffffffffffffffffffffffffffffffffffffff021916908373ffffffffffffffffffffffffffffffffffffffff1602179055508173ffffffffffffffffffffffffffffffffffffffff168173ffffffffffffffffffffffffffffffffffffffff167f8be0079c531659141344cd1fd0a4f28419497f9722a3daafe3b4186f6b6457e060405160405180910390a35050565b8280546200024e906200043c565b90600052602060002090601f016020900481019282620002725760008555620002be565b82601f106200028d57805160ff1916838001178555620002be565b82800160010185558215620002be579182015b82811115620002bd578251825591602001919060010190620002a0565b5b509050620002cd9190620002d1565b5090565b5b80821115620002ec576000816000905550600101620002d2565b5090565b6000620003076200030184620003d0565b620003a7565b9050828152602081018484840111156200032057600080fd5b6200032d84828562000406565b509392505050565b600082601f8301126200034757600080fd5b815162000359848260208601620002f0565b91505092915050565b6000602082840312156200037557600080fd5b600082015167ffffffffffffffff8111156200039057600080fd5b6200039e8482850162000335565b91505092915050565b6000620003b3620003c6565b9050620003c1828262000472565b919050565b6000604051905090565b600067ffffffffffffffff821115620003ee57620003ed620004d7565b5b620003f98262000506565b9050602081019050919050565b60005b838110156200042657808201518184015260208101905062000409565b8381111562000436576000848401525b50505050565b600060028204905060018216806200045557607f821691505b602082108114156200046c576200046b620004a8565b5b50919050565b6200047d8262000506565b810181811067ffffffffffffffff821117156200049f576200049e620004d7565b5b80604052505050565b7f4e487b7100000000000000000000000000000000000000000000000000000000600052602260045260246000fd5b7f4e487b7100000000000000000000000000000000000000000000000000000000600052604160045260246000fd5b6000601f19601f8301169050919050565b613a3c80620005276000396000f3fe608060405234801561001057600080fd5b506004361061016a576000357c010000000000000000000000000000000000000000000000000000000090048063715018a6116100e0578063d6d3127511610099578063d6d31275146103a7578063db2e3924146103c3578063e36a0d45146103e1578063e985e9c5146103ff578063f2fde38b1461042f578063f7ea7a3d1461044b5761016a565b8063715018a6146102f95780638da5cb5b1461030357806395d89b4114610321578063a22cb4651461033f578063b88d4fde1461035b578063c87b56dd146103775761016a565b806323b872dd1161013257806323b872dd146102275780632b7ac3f31461024357806342842e0e146102615780634e5dbd881461027d5780636352211e1461029957806370a08231146102c95761016a565b806301ffc9a71461016f57806306fdde031461019f578063081812fc146101bd578063095ea7b3146101ed57806318160ddd14610209575b600080fd5b610189600480360381019061018491906126ef565b61047b565b6040516101969190612cc4565b60405180910390f35b6101a761055d565b6040516101b49190612cfa565b60405180910390f35b6101d760048036038101906101d29190612782565b6105ef565b6040516101e49190612c34565b60405180910390f35b610207600480360381019061020291906126b3565b610674565b005b61021161078c565b60405161021e9190612fde565b60405180910390f35b610241600480360381019061023c91906125ad565b610796565b005b61024b6107f6565b6040516102589190612cdf565b60405180910390f35b61027b600480360381019061027691906125ad565b61081c565b005b61029760048036038101906102929190612548565b61083c565b005b6102b360048036038101906102ae9190612782565b61096b565b6040516102c09190612c34565b60405180910390f35b6102e360048036038101906102de9190612548565b610a1d565b6040516102f09190612fde565b60405180910390f35b610301610ad5565b005b61030b610b5d565b6040516103189190612c34565b60405180910390f35b610329610b87565b6040516103369190612cfa565b60405180910390f35b61035960048036038101906103549190612677565b610c19565b005b610375600480360381019061037091906125fc565b610c2f565b005b610391600480360381019061038c9190612782565b610c91565b60405161039e9190612cfa565b60405180910390f35b6103c160048036038101906103bc9190612741565b610de3565b005b6103cb6110e7565b6040516103d89190612fbc565b60405180910390f35b6103e9611230565b6040516103f69190612fde565b60405180910390f35b61041960048036038101906104149190612571565b61123f565b6040516104269190612cc4565b60405180910390f35b61044960048036038101906104449190612548565b6112d3565b005b61046560048036038101906104609190612782565b6113cb565b6040516104729190612fde565b60405180910390f35b60007f80ac58cd000000000000000000000000000000000000000000000000000000007bffffffffffffffffffffffffffffffffffffffffffffffffffffffff1916827bffffffffffffffffffffffffffffffffffffffffffffffffffffffff1916148061054657507f5b5e139f000000000000000000000000000000000000000000000000000000007bffffffffffffffffffffffffffffffffffffffffffffffffffffffff1916827bffffffffffffffffffffffffffffffffffffffffffffffffffffffff1916145b806105565750610555826113de565b5b9050919050565b60606000805461056c90613269565b80601f016020809104026020016040519081016040528092919081815260200182805461059890613269565b80156105e55780601f106105ba576101008083540402835291602001916105e5565b820191906000526020600020905b8154815290600101906020018083116105c857829003601f168201915b5050505050905090565b60006105fa82611448565b610639576040517f08c379a000000000000000000000000000000000000000000000000000000000815260040161063090612ebc565b60405180910390fd5b6004600083815260200190815260200160002060009054906101000a900473ffffffffffffffffffffffffffffffffffffffff169050919050565b600061067f8261096b565b90508073ffffffffffffffffffffffffffffffffffffffff168373ffffffffffffffffffffffffffffffffffffffff1614156106f0576040517f08c379a00000000000000000000000000000000000000000000000000000000081526004016106e790612f1c565b60405180910390fd5b8073ffffffffffffffffffffffffffffffffffffffff1661070f6114b4565b73ffffffffffffffffffffffffffffffffffffffff16148061073e575061073d816107386114b4565b61123f565b5b61077d576040517f08c379a000000000000000000000000000000000000000000000000000000000815260040161077490612dfc565b60405180910390fd5b61078783836114bc565b505050565b6000600b54905090565b6107a76107a16114b4565b82611575565b6107e6576040517f08c379a00000000000000000000000000000000000000000000000000000000081526004016107dd90612f3c565b60405180910390fd5b6107f1838383611653565b505050565b600960009054906101000a900473ffffffffffffffffffffffffffffffffffffffff1681565b61083783838360405180602001604052806000815250610c2f565b505050565b6108446114b4565b73ffffffffffffffffffffffffffffffffffffffff16610862610b5d565b73ffffffffffffffffffffffffffffffffffffffff16146108b8576040517f08c379a00000000000000000000000000000000000000000000000000000000081526004016108af90612edc565b60405180910390fd5b600073ffffffffffffffffffffffffffffffffffffffff168173ffffffffffffffffffffffffffffffffffffffff161415610928576040517f08c379a000000000000000000000000000000000000000000000000000000000815260040161091f90612f9c565b60405180910390fd5b610931816118ba565b7f24fef68333a009942a0d4864d8fdf2266e208a96399f135b05c1dc92c3c31f92816040516109609190612c34565b60405180910390a150565b6000806002600084815260200190815260200160002060009054906101000a900473ffffffffffffffffffffffffffffffffffffffff169050600073ffffffffffffffffffffffffffffffffffffffff168173ffffffffffffffffffffffffffffffffffffffff161415610a14576040517f08c379a0000000000000000000000000000000000000000000000000000000008152600401610a0b90612e3c565b60405180910390fd5b80915050919050565b60008073ffffffffffffffffffffffffffffffffffffffff168273ffffffffffffffffffffffffffffffffffffffff161415610a8e576040517f08c379a0000000000000000000000000000000000000000000000000000000008152600401610a8590612e1c565b60405180910390fd5b600360008373ffffffffffffffffffffffffffffffffffffffff1673ffffffffffffffffffffffffffffffffffffffff168152602001908152602001600020549050919050565b610add6114b4565b73ffffffffffffffffffffffffffffffffffffffff16610afb610b5d565b73ffffffffffffffffffffffffffffffffffffffff1614610b51576040517f08c379a0000000000000000000000000000000000000000000000000000000008152600401610b4890612edc565b60405180910390fd5b610b5b60006118ba565b565b6000600760009054906101000a900473ffffffffffffffffffffffffffffffffffffffff16905090565b606060018054610b9690613269565b80601f0160208091040260200160405190810160405280929190818152602001828054610bc290613269565b8015610c0f5780601f10610be457610100808354040283529160200191610c0f565b820191906000526020600020905b815481529060010190602001808311610bf257829003601f168201915b5050505050905090565b610c2b610c246114b4565b8383611980565b5050565b610c40610c3a6114b4565b83611575565b610c7f576040517f08c379a0000000000000000000000000000000000000000000000000000000008152600401610c7690612f3c565b60405180910390fd5b610c8b84848484611aed565b50505050565b6060610c9c82611448565b610cdb576040517f08c379a0000000000000000000000000000000000000000000000000000000008152600401610cd290612e9c565b60405180910390fd5b6000600660008481526020019081526020016000208054610cfb90613269565b80601f0160208091040260200160405190810160405280929190818152602001828054610d2790613269565b8015610d745780601f10610d4957610100808354040283529160200191610d74565b820191906000526020600020905b815481529060010190602001808311610d5757829003601f168201915b505050505090506000610d85611b49565b9050600081511415610d9b578192505050610dde565b600082511115610dd0578082604051602001610db8929190612c10565b60405160208183030381529060405292505050610dde565b610dd984611bdb565b925050505b919050565b610ded600c611c82565b6000610df9600c611c98565b9050610e0361078c565b811115610e45576040517f08c379a0000000000000000000000000000000000000000000000000000000008152600401610e3c90612f5c565b60405180910390fd5b6000600f60003373ffffffffffffffffffffffffffffffffffffffff1673ffffffffffffffffffffffffffffffffffffffff1681526020019081526020016000205414610ec7576040517f08c379a0000000000000000000000000000000000000000000000000000000008152600401610ebe90612f7c565b60405180910390fd5b610ed13382611ca6565b610edb8183611cc4565b60006040518060600160405280838152602001610ef784610c91565b81526020013373ffffffffffffffffffffffffffffffffffffffff16815250905081600f60003373ffffffffffffffffffffffffffffffffffffffff1673ffffffffffffffffffffffffffffffffffffffff1681526020019081526020016000208190555080601060003373ffffffffffffffffffffffffffffffffffffffff1673ffffffffffffffffffffffffffffffffffffffff168152602001908152602001600020600082015181600001556020820151816001019080519060200190610fc2929190612335565b5060408201518160020160006101000a81548173ffffffffffffffffffffffffffffffffffffffff021916908373ffffffffffffffffffffffffffffffffffffffff160217905550905050600e81908060018154018082558091505060019003906000526020600020906003020160009091909190915060008201518160000155602082015181600101908051906020019061105f929190612335565b5060408201518160020160006101000a81548173ffffffffffffffffffffffffffffffffffffffff021916908373ffffffffffffffffffffffffffffffffffffffff16021790555050507f30385c845b448a36257a6a1716e6ad2e1bc2cbe333cde1e69fe849ad6511adfe33836040516110da929190612c9b565b60405180910390a1505050565b6110ef6123bb565b601060003373ffffffffffffffffffffffffffffffffffffffff1673ffffffffffffffffffffffffffffffffffffffff1681526020019081526020016000206040518060600160405290816000820154815260200160018201805461115390613269565b80601f016020809104026020016040519081016040528092919081815260200182805461117f90613269565b80156111cc5780601f106111a1576101008083540402835291602001916111cc565b820191906000526020600020905b8154815290600101906020018083116111af57829003601f168201915b505050505081526020016002820160009054906101000a900473ffffffffffffffffffffffffffffffffffffffff1673ffffffffffffffffffffffffffffffffffffffff1673ffffffffffffffffffffffffffffffffffffffff1681525050905090565b600061123a61078c565b905090565b6000600560008473ffffffffffffffffffffffffffffffffffffffff1673ffffffffffffffffffffffffffffffffffffffff16815260200190815260200160002060008373ffffffffffffffffffffffffffffffffffffffff1673ffffffffffffffffffffffffffffffffffffffff16815260200190815260200160002060009054906101000a900460ff16905092915050565b6112db6114b4565b73ffffffffffffffffffffffffffffffffffffffff166112f9610b5d565b73ffffffffffffffffffffffffffffffffffffffff161461134f576040517f08c379a000000000000000000000000000000000000000000000000000000000815260040161134690612edc565b60405180910390fd5b600073ffffffffffffffffffffffffffffffffffffffff168173ffffffffffffffffffffffffffffffffffffffff1614156113bf576040517f08c379a00000000000000000000000000000000000000000000000000000000081526004016113b690612d3c565b60405180910390fd5b6113c8816118ba565b50565b600081600b81905550600b549050919050565b60007f01ffc9a7000000000000000000000000000000000000000000000000000000007bffffffffffffffffffffffffffffffffffffffffffffffffffffffff1916827bffffffffffffffffffffffffffffffffffffffffffffffffffffffff1916149050919050565b60008073ffffffffffffffffffffffffffffffffffffffff166002600084815260200190815260200160002060009054906101000a900473ffffffffffffffffffffffffffffffffffffffff1673ffffffffffffffffffffffffffffffffffffffff1614159050919050565b600033905090565b816004600083815260200190815260200160002060006101000a81548173ffffffffffffffffffffffffffffffffffffffff021916908373ffffffffffffffffffffffffffffffffffffffff160217905550808273ffffffffffffffffffffffffffffffffffffffff1661152f8361096b565b73ffffffffffffffffffffffffffffffffffffffff167f8c5be1e5ebec7d5bd14f71427d1e84f3dd0314c0f7b2291e5b200ac8c7c3b92560405160405180910390a45050565b600061158082611448565b6115bf576040517f08c379a00000000000000000000000000000000000000000000000000000000081526004016115b690612ddc565b60405180910390fd5b60006115ca8361096b565b90508073ffffffffffffffffffffffffffffffffffffffff168473ffffffffffffffffffffffffffffffffffffffff16148061163957508373ffffffffffffffffffffffffffffffffffffffff16611621846105ef565b73ffffffffffffffffffffffffffffffffffffffff16145b8061164a5750611649818561123f565b5b91505092915050565b8273ffffffffffffffffffffffffffffffffffffffff166116738261096b565b73ffffffffffffffffffffffffffffffffffffffff16146116c9576040517f08c379a00000000000000000000000000000000000000000000000000000000081526004016116c090612d5c565b60405180910390fd5b600073ffffffffffffffffffffffffffffffffffffffff168273ffffffffffffffffffffffffffffffffffffffff161415611739576040517f08c379a000000000000000000000000000000000000000000000000000000000815260040161173090612d9c565b60405180910390fd5b611744838383611d38565b61174f6000826114bc565b6001600360008573ffffffffffffffffffffffffffffffffffffffff1673ffffffffffffffffffffffffffffffffffffffff168152602001908152602001600020600082825461179f919061315b565b925050819055506001600360008473ffffffffffffffffffffffffffffffffffffffff1673ffffffffffffffffffffffffffffffffffffffff16815260200190815260200160002060008282546117f691906130d4565b92505081905550816002600083815260200190815260200160002060006101000a81548173ffffffffffffffffffffffffffffffffffffffff021916908373ffffffffffffffffffffffffffffffffffffffff160217905550808273ffffffffffffffffffffffffffffffffffffffff168473ffffffffffffffffffffffffffffffffffffffff167fddf252ad1be2c89b69c2b068fc378daa952ba7f163c4a11628f55a4df523b3ef60405160405180910390a46118b5838383611d3d565b505050565b6000600760009054906101000a900473ffffffffffffffffffffffffffffffffffffffff16905081600760006101000a81548173ffffffffffffffffffffffffffffffffffffffff021916908373ffffffffffffffffffffffffffffffffffffffff1602179055508173ffffffffffffffffffffffffffffffffffffffff168173ffffffffffffffffffffffffffffffffffffffff167f8be0079c531659141344cd1fd0a4f28419497f9722a3daafe3b4186f6b6457e060405160405180910390a35050565b8173ffffffffffffffffffffffffffffffffffffffff168373ffffffffffffffffffffffffffffffffffffffff1614156119ef576040517f08c379a00000000000000000000000000000000000000000000000000000000081526004016119e690612dbc565b60405180910390fd5b80600560008573ffffffffffffffffffffffffffffffffffffffff1673ffffffffffffffffffffffffffffffffffffffff16815260200190815260200160002060008473ffffffffffffffffffffffffffffffffffffffff1673ffffffffffffffffffffffffffffffffffffffff16815260200190815260200160002060006101000a81548160ff0219169083151502179055508173ffffffffffffffffffffffffffffffffffffffff168373ffffffffffffffffffffffffffffffffffffffff167f17307eab39ab6107e8899845ad3d59bd9653f200f220920489ca2b5937696c3183604051611ae09190612cc4565b60405180910390a3505050565b611af8848484611653565b611b0484848484611d42565b611b43576040517f08c379a0000000000000000000000000000000000000000000000000000000008152600401611b3a90612d1c565b60405180910390fd5b50505050565b6060600a8054611b5890613269565b80601f0160208091040260200160405190810160405280929190818152602001828054611b8490613269565b8015611bd15780601f10611ba657610100808354040283529160200191611bd1565b820191906000526020600020905b815481529060010190602001808311611bb457829003601f168201915b5050505050905090565b6060611be682611448565b611c25576040517f08c379a0000000000000000000000000000000000000000000000000000000008152600401611c1c90612efc565b60405180910390fd5b6000611c2f611b49565b90506000815111611c4f5760405180602001604052806000815250611c7a565b80611c5984611f11565b604051602001611c6a929190612c10565b6040516020818303038152906040525b915050919050565b6001816000016000828254019250508190555050565b600081600001549050919050565b611cc08282604051806020016040528060008152506120dd565b5050565b611ccd82611448565b611d0c576040517f08c379a0000000000000000000000000000000000000000000000000000000008152600401611d0390612e5c565b60405180910390fd5b80600660008481526020019081526020016000209080519060200190611d33929190612335565b505050565b505050565b505050565b6000611d638473ffffffffffffffffffffffffffffffffffffffff16612138565b15611f04578373ffffffffffffffffffffffffffffffffffffffff1663150b7a02611d8c6114b4565b8786866040518563ffffffff167c0100000000000000000000000000000000000000000000000000000000028152600401611dca9493929190612c4f565b602060405180830381600087803b158015611de457600080fd5b505af1925050508015611e1557506040513d601f19601f82011682018060405250810190611e129190612718565b60015b611e98573d8060008114611e45576040519150601f19603f3d011682016040523d82523d6000602084013e611e4a565b606091505b50600081511415611e90576040517f08c379a0000000000000000000000000000000000000000000000000000000008152600401611e8790612d1c565b60405180910390fd5b805181602001fd5b63150b7a027c0100000000000000000000000000000000000000000000000000000000027bffffffffffffffffffffffffffffffffffffffffffffffffffffffff1916817bffffffffffffffffffffffffffffffffffffffffffffffffffffffff191614915050611f09565b600190505b949350505050565b60606000821415611f59576040518060400160405280600181526020017f300000000000000000000000000000000000000000000000000000000000000081525090506120d8565b600082905060005b60008214611f8b578080611f74906132cc565b915050600a82611f84919061312a565b9150611f61565b60008167ffffffffffffffff811115611fcd577f4e487b7100000000000000000000000000000000000000000000000000000000600052604160045260246000fd5b6040519080825280601f01601f191660200182016040528015611fff5781602001600182028036833780820191505090505b5090505b600085146120d157600182612018919061315b565b9150600a856120279190613315565b603061203391906130d4565b7f01000000000000000000000000000000000000000000000000000000000000000281838151811061208e577f4e487b7100000000000000000000000000000000000000000000000000000000600052603260045260246000fd5b60200101907effffffffffffffffffffffffffffffffffffffffffffffffffffffffffffff1916908160001a905350600a856120ca919061312a565b9450612003565b8093505050505b919050565b6120e7838361215b565b6120f46000848484611d42565b612133576040517f08c379a000000000000000000000000000000000000000000000000000000000815260040161212a90612d1c565b60405180910390fd5b505050565b6000808273ffffffffffffffffffffffffffffffffffffffff163b119050919050565b600073ffffffffffffffffffffffffffffffffffffffff168273ffffffffffffffffffffffffffffffffffffffff1614156121cb576040517f08c379a00000000000000000000000000000000000000000000000000000000081526004016121c290612e7c565b60405180910390fd5b6121d481611448565b15612214576040517f08c379a000000000000000000000000000000000000000000000000000000000815260040161220b90612d7c565b60405180910390fd5b61222060008383611d38565b6001600360008473ffffffffffffffffffffffffffffffffffffffff1673ffffffffffffffffffffffffffffffffffffffff168152602001908152602001600020600082825461227091906130d4565b92505081905550816002600083815260200190815260200160002060006101000a81548173ffffffffffffffffffffffffffffffffffffffff021916908373ffffffffffffffffffffffffffffffffffffffff160217905550808273ffffffffffffffffffffffffffffffffffffffff16600073ffffffffffffffffffffffffffffffffffffffff167fddf252ad1be2c89b69c2b068fc378daa952ba7f163c4a11628f55a4df523b3ef60405160405180910390a461233160008383611d3d565b5050565b82805461234190613269565b90600052602060002090601f01602090048101928261236357600085556123aa565b82601f1061237c57805160ff19168380011785556123aa565b828001600101855582156123aa579182015b828111156123a957825182559160200191906001019061238e565b5b5090506123b791906123f2565b5090565b60405180606001604052806000815260200160608152602001600073ffffffffffffffffffffffffffffffffffffffff1681525090565b5b8082111561240b5760008160009055506001016123f3565b5090565b600061242261241d8461301e565b612ff9565b90508281526020810184848401111561243a57600080fd5b612445848285613227565b509392505050565b600061246061245b8461304f565b612ff9565b90508281526020810184848401111561247857600080fd5b612483848285613227565b509392505050565b60008135905061249a816139aa565b92915050565b6000813590506124af816139c1565b92915050565b6000813590506124c4816139d8565b92915050565b6000815190506124d9816139d8565b92915050565b600082601f8301126124f057600080fd5b813561250084826020860161240f565b91505092915050565b600082601f83011261251a57600080fd5b813561252a84826020860161244d565b91505092915050565b600081359050612542816139ef565b92915050565b60006020828403121561255a57600080fd5b60006125688482850161248b565b91505092915050565b6000806040838503121561258457600080fd5b60006125928582860161248b565b92505060206125a38582860161248b565b9150509250929050565b6000806000606084860312156125c257600080fd5b60006125d08682870161248b565b93505060206125e18682870161248b565b92505060406125f286828701612533565b9150509250925092565b6000806000806080858703121561261257600080fd5b60006126208782880161248b565b94505060206126318782880161248b565b935050604061264287828801612533565b925050606085013567ffffffffffffffff81111561265f57600080fd5b61266b878288016124df565b91505092959194509250565b6000806040838503121561268a57600080fd5b60006126988582860161248b565b92505060206126a9858286016124a0565b9150509250929050565b600080604083850312156126c657600080fd5b60006126d48582860161248b565b92505060206126e585828601612533565b9150509250929050565b60006020828403121561270157600080fd5b600061270f848285016124b5565b91505092915050565b60006020828403121561272a57600080fd5b6000612738848285016124ca565b91505092915050565b60006020828403121561275357600080fd5b600082013567ffffffffffffffff81111561276d57600080fd5b61277984828501612509565b91505092915050565b60006020828403121561279457600080fd5b60006127a284828501612533565b91505092915050565b6127b48161318f565b82525050565b6127c38161318f565b82525050565b6127d2816131a1565b82525050565b60006127e382613080565b6127ed8185613096565b93506127fd818560208601613236565b61280681613402565b840191505092915050565b61281a81613203565b82525050565b600061282b8261308b565b61283581856130a7565b9350612845818560208601613236565b61284e81613402565b840191505092915050565b60006128648261308b565b61286e81856130b8565b935061287e818560208601613236565b61288781613402565b840191505092915050565b600061289d8261308b565b6128a781856130c9565b93506128b7818560208601613236565b80840191505092915050565b60006128d06032836130b8565b91506128db82613413565b604082019050919050565b60006128f36026836130b8565b91506128fe82613462565b604082019050919050565b60006129166025836130b8565b9150612921826134b1565b604082019050919050565b6000612939601c836130b8565b915061294482613500565b602082019050919050565b600061295c6024836130b8565b915061296782613529565b604082019050919050565b600061297f6019836130b8565b915061298a82613578565b602082019050919050565b60006129a2602c836130b8565b91506129ad826135a1565b604082019050919050565b60006129c56038836130b8565b91506129d0826135f0565b604082019050919050565b60006129e8602a836130b8565b91506129f38261363f565b604082019050919050565b6000612a0b6029836130b8565b9150612a168261368e565b604082019050919050565b6000612a2e602e836130b8565b9150612a39826136dd565b604082019050919050565b6000612a516020836130b8565b9150612a5c8261372c565b602082019050919050565b6000612a746031836130b8565b9150612a7f82613755565b604082019050919050565b6000612a97602c836130b8565b9150612aa2826137a4565b604082019050919050565b6000612aba6020836130b8565b9150612ac5826137f3565b602082019050919050565b6000612add602f836130b8565b9150612ae88261381c565b604082019050919050565b6000612b006021836130b8565b9150612b0b8261386b565b604082019050919050565b6000612b236031836130b8565b9150612b2e826138ba565b604082019050919050565b6000612b466022836130b8565b9150612b5182613909565b604082019050919050565b6000612b696018836130b8565b9150612b7482613958565b602082019050919050565b6000612b8c6020836130b8565b9150612b9782613981565b602082019050919050565b6000606083016000830151612bba6000860182612bf2565b5060208301518482036020860152612bd28282612820565b9150506040830151612be760408601826127ab565b508091505092915050565b612bfb816131f9565b82525050565b612c0a816131f9565b82525050565b6000612c1c8285612892565b9150612c288284612892565b91508190509392505050565b6000602082019050612c4960008301846127ba565b92915050565b6000608082019050612c6460008301876127ba565b612c7160208301866127ba565b612c7e6040830185612c01565b8181036060830152612c9081846127d8565b905095945050505050565b6000604082019050612cb060008301856127ba565b612cbd6020830184612c01565b9392505050565b6000602082019050612cd960008301846127c9565b92915050565b6000602082019050612cf46000830184612811565b92915050565b60006020820190508181036000830152612d148184612859565b905092915050565b60006020820190508181036000830152612d35816128c3565b9050919050565b60006020820190508181036000830152612d55816128e6565b9050919050565b60006020820190508181036000830152612d7581612909565b9050919050565b60006020820190508181036000830152612d958161292c565b9050919050565b60006020820190508181036000830152612db58161294f565b9050919050565b60006020820190508181036000830152612dd581612972565b9050919050565b60006020820190508181036000830152612df581612995565b9050919050565b60006020820190508181036000830152612e15816129b8565b9050919050565b60006020820190508181036000830152612e35816129db565b9050919050565b60006020820190508181036000830152612e55816129fe565b9050919050565b60006020820190508181036000830152612e7581612a21565b9050919050565b60006020820190508181036000830152612e9581612a44565b9050919050565b60006020820190508181036000830152612eb581612a67565b9050919050565b60006020820190508181036000830152612ed581612a8a565b9050919050565b60006020820190508181036000830152612ef581612aad565b9050919050565b60006020820190508181036000830152612f1581612ad0565b9050919050565b60006020820190508181036000830152612f3581612af3565b9050919050565b60006020820190508181036000830152612f5581612b16565b9050919050565b60006020820190508181036000830152612f7581612b39565b9050919050565b60006020820190508181036000830152612f9581612b5c565b9050919050565b60006020820190508181036000830152612fb581612b7f565b9050919050565b60006020820190508181036000830152612fd68184612ba2565b905092915050565b6000602082019050612ff36000830184612c01565b92915050565b6000613003613014565b905061300f828261329b565b919050565b6000604051905090565b600067ffffffffffffffff821115613039576130386133d3565b5b61304282613402565b9050602081019050919050565b600067ffffffffffffffff82111561306a576130696133d3565b5b61307382613402565b9050602081019050919050565b600081519050919050565b600081519050919050565b600082825260208201905092915050565b600082825260208201905092915050565b600082825260208201905092915050565b600081905092915050565b60006130df826131f9565b91506130ea836131f9565b9250827fffffffffffffffffffffffffffffffffffffffffffffffffffffffffffffffff0382111561311f5761311e613346565b5b828201905092915050565b6000613135826131f9565b9150613140836131f9565b9250826131505761314f613375565b5b828204905092915050565b6000613166826131f9565b9150613171836131f9565b92508282101561318457613183613346565b5b828203905092915050565b600061319a826131d9565b9050919050565b60008115159050919050565b60007fffffffff0000000000000000000000000000000000000000000000000000000082169050919050565b600073ffffffffffffffffffffffffffffffffffffffff82169050919050565b6000819050919050565b600061320e82613215565b9050919050565b6000613220826131d9565b9050919050565b82818337600083830152505050565b60005b83811015613254578082015181840152602081019050613239565b83811115613263576000848401525b50505050565b6000600282049050600182168061328157607f821691505b60208210811415613295576132946133a4565b5b50919050565b6132a482613402565b810181811067ffffffffffffffff821117156132c3576132c26133d3565b5b80604052505050565b60006132d7826131f9565b91507fffffffffffffffffffffffffffffffffffffffffffffffffffffffffffffffff82141561330a57613309613346565b5b600182019050919050565b6000613320826131f9565b915061332b836131f9565b92508261333b5761333a613375565b5b828206905092915050565b7f4e487b7100000000000000000000000000000000000000000000000000000000600052601160045260246000fd5b7f4e487b7100000000000000000000000000000000000000000000000000000000600052601260045260246000fd5b7f4e487b7100000000000000000000000000000000000000000000000000000000600052602260045260246000fd5b7f4e487b7100000000000000000000000000000000000000000000000000000000600052604160045260246000fd5b6000601f19601f8301169050919050565b7f4552433732313a207472616e7366657220746f206e6f6e20455243373231526560008201527f63656976657220696d706c656d656e7465720000000000000000000000000000602082015250565b7f4f776e61626c653a206e6577206f776e657220697320746865207a65726f206160008201527f6464726573730000000000000000000000000000000000000000000000000000602082015250565b7f4552433732313a207472616e736665722066726f6d20696e636f72726563742060008201527f6f776e6572000000000000000000000000000000000000000000000000000000602082015250565b7f4552433732313a20746f6b656e20616c7265616479206d696e74656400000000600082015250565b7f4552433732313a207472616e7366657220746f20746865207a65726f2061646460008201527f7265737300000000000000000000000000000000000000000000000000000000602082015250565b7f4552433732313a20617070726f766520746f2063616c6c657200000000000000600082015250565b7f4552433732313a206f70657261746f7220717565727920666f72206e6f6e657860008201527f697374656e7420746f6b656e0000000000000000000000000000000000000000602082015250565b7f4552433732313a20617070726f76652063616c6c6572206973206e6f74206f7760008201527f6e6572206e6f7220617070726f76656420666f7220616c6c0000000000000000602082015250565b7f4552433732313a2062616c616e636520717565727920666f7220746865207a6560008201527f726f206164647265737300000000000000000000000000000000000000000000602082015250565b7f4552433732313a206f776e657220717565727920666f72206e6f6e657869737460008201527f656e7420746f6b656e0000000000000000000000000000000000000000000000602082015250565b7f45524337323155524953746f726167653a2055524920736574206f66206e6f6e60008201527f6578697374656e7420746f6b656e000000000000000000000000000000000000602082015250565b7f4552433732313a206d696e7420746f20746865207a65726f2061646472657373600082015250565b7f45524337323155524953746f726167653a2055524920717565727920666f722060008201527f6e6f6e6578697374656e7420746f6b656e000000000000000000000000000000602082015250565b7f4552433732313a20617070726f76656420717565727920666f72206e6f6e657860008201527f697374656e7420746f6b656e0000000000000000000000000000000000000000602082015250565b7f4f776e61626c653a2063616c6c6572206973206e6f7420746865206f776e6572600082015250565b7f4552433732314d657461646174613a2055524920717565727920666f72206e6f60008201527f6e6578697374656e7420746f6b656e0000000000000000000000000000000000602082015250565b7f4552433732313a20617070726f76616c20746f2063757272656e74206f776e6560008201527f7200000000000000000000000000000000000000000000000000000000000000602082015250565b7f4552433732313a207472616e736665722063616c6c6572206973206e6f74206f60008201527f776e6572206e6f7220617070726f766564000000000000000000000000000000602082015250565b7f416c6c20746865204875666669636f6e732068617665206265656e206d696e7460008201527f6564000000000000000000000000000000000000000000000000000000000000602082015250565b7f4f776e65722068617320616c7265616479206d696e7465640000000000000000600082015250565b7f4e6577206f776e65722063616e6e6f74206265207a65726f2061646472657373600082015250565b6139b38161318f565b81146139be57600080fd5b50565b6139ca816131a1565b81146139d557600080fd5b50565b6139e1816131ad565b81146139ec57600080fd5b50565b6139f8816131f9565b8114613a0357600080fd5b5056fea2646970667358221220a06041ade090765421bd02ddeb8bd8c3106eb6454bb2e6764c3c4c7074f37f1064736f6c63430008040033",
  "immutableReferences": {},
  "source": "// SPDX-License-Identifier: MIT\npragma solidity ^0.8.4;\n\nimport \"@openzeppelin/contracts/token/ERC721/extensions/ERC721URIStorage.sol\";\nimport \"@openzeppelin/contracts/token/ERC721/ERC721.sol\";\nimport \"@openzeppelin/contracts/access/Ownable.sol\";\nimport \"@openzeppelin/contracts/utils/Counters.sol\";\nimport \"@openzeppelin/contracts/security/ReentrancyGuard.sol\";\nimport \"@openzeppelin/contracts/utils/math/SafeMath.sol\";\nimport \"./verifier.sol\";\n\ncontract Hufficorn is  ERC721URIStorage, Ownable, ReentrancyGuard{\n    \n    Verifier public verifier;\n    string baseURI;\n    uint256 tokenSupply;\n    using Counters for Counters.Counter;\n\n    Counters.Counter private tokenCount;\n\n    address platform;\n\n    struct NFTData {\n        uint tokenId;\n        string tokenURI;\n        address tokenOwner;\n    }\n\n    NFTData[] nftData;\n    mapping(address => uint) ownerMapping;\n    mapping(address => NFTData) nftTokenMap;\n\n\n    event Minted(address owner, uint numTokens);\n    event Sold(uint tokenId, uint salePrice);\n    event OwnershipGranted(address newOwner);\n\n    modifier onlyTokenOwner(uint tokenId) {\n        require(msg.sender == ownerOf(tokenId), \"Only token owner can call this function\");\n        _;\n    }\n\n    constructor (\n        string memory baseTokenURI\n    ) ERC721(\"Hufficorn\", \"HUFF\") {\n        baseURI = baseTokenURI;\n        platform = msg.sender;\n    }\n\n    /**\n     * @dev Base URI for computing {tokenURI}. If set, the resulting URI for each\n     * token will be the concatenation of the `baseURI` and the `tokenId`. Empty\n     * by default, can be overriden in child contracts.\n     */\n    function _baseURI() internal view virtual override returns (string memory) {\n        return baseURI;\n    }\n\n    function setTotalSupply( uint256 _totalSupply) public returns(uint256){\n        tokenSupply = _totalSupply;\n        return tokenSupply;\n    }\n\n    function totalSupply() public view returns(uint256) {\n       return tokenSupply;\n    }\n    /*\n        Mint Hufficorns.\n        @dev: \n    */\n    function mintHufficorn(string memory tokenMetadata) public {\n        tokenCount.increment();\n        uint256 tokenId = tokenCount.current();\n        require(tokenId <= totalSupply(), \"All the Hufficons have been minted\");\n\n        require(ownerMapping[msg.sender] == 0, \"Owner has already minted\");\n\n        _safeMint(msg.sender, tokenId);\n        _setTokenURI(tokenId, tokenMetadata);\n            \n        NFTData memory nft = NFTData(tokenId, tokenURI(tokenId), msg.sender);\n        ownerMapping[msg.sender] = tokenId;\n        nftTokenMap[msg.sender] = nft;\n        nftData.push(nft);\n\n        emit Minted(msg.sender, tokenId);\n        \n    }\n\n    /* Get the total number of Hufficorns\n    */\n    function getTotalMintedHufficorn() external view returns(uint256) {\n        return totalSupply();\n    }\n\n    /**\n    * @dev Owner can transfer the ownership of the contract to a new account (`_grantedOwner`).\n    * Can only be called by the current owner.\n    */\n    function grantContractOwnership(address newOwner) public virtual onlyOwner {\n        require(newOwner != address(0), \"New owner cannot be zero address\");\n        _transferOwnership(newOwner);\n        emit OwnershipGranted(newOwner);\n    }\n\n    /*\n    */\n    function getOwnerNft() public view returns(NFTData memory tokenMap) {\n        return nftTokenMap[msg.sender];\n    }\n\n}\n\ncontract HufficornGame {\n\n    using SafeMath for uint;\n\n    Verifier public verifier;\n    using Counters for Counters.Counter;\n    Counters.Counter private gameIds;\n    address _platform;\n\n    struct Game {\n        uint256 gameId;\n        uint256 tokenId;\n        uint256 attributeNum;\n        uint256 creatorAttributeValue;\n        address creator;\n        uint256 poolMoney;\n        bool active;\n    }\n\n    Game[] games;\n\n    mapping(uint256 => address[]) gamePlayers;\n    mapping(uint256 => uint256[]) attributePoints;\n    mapping(uint256 => Game) gameMap;\n    mapping(uint256 => bool) tokenInUse;\n    mapping(uint256 => address[]) winnerList;\n    mapping(uint256 => uint256[]) tokensPerGame;\n    mapping(address => uint256) public userBalance;\n\n    constructor(address platform) {\n        _platform = platform;\n    }\n\n    function createGame(uint256 tokenId, uint256 attributeNum, uint256 attributeValue, uint256 amount) public payable returns(uint256) {\n        gameIds.increment();\n        uint256 gameId = gameIds.current();\n\n        require(msg.value >= amount, \"Not enough amount to create a game\");\n        require(tokenInUse[tokenId] == false, \"Token ID is already used in another game\");\n\n\n        Game memory newGame = Game(gameId, tokenId, attributeNum, attributeValue, msg.sender, msg.value ,true);\n        gameMap[gameId] = newGame;\n\n        tokenInUse[tokenId] = true;\n\n        gamePlayers[gameId].push(msg.sender);\n        attributePoints[gameId].push(attributeValue);\n        tokensPerGame[gameId].push(tokenId);\n        games.push(newGame);\n\n        return gameId;\n\n    }\n\n\n    function joinGame(uint256 gameId, uint256 tokenId, uint256 attributeValue,  uint256[2] memory a, uint256[2][2] memory b, uint256[2] memory c, uint256[4] memory _publicInputs) public payable returns(bool) {\n        Game memory game = gameMap[gameId];\n     \n        require(msg.value >= game.poolMoney, \"Not enough amount to join the game\");\n        require(game.active == true, \"Game is not active anymore\");\n        require(tokenInUse[tokenId] == false, \"Token ID is already used in another game\");\n        require(verifier.verifyProof(a, b, c, _publicInputs) == true, \"Invalid attribute value\");\n\n        gamePlayers[gameId].push(msg.sender);\n        attributePoints[gameId].push(attributeValue);\n        tokenInUse[tokenId] = true;\n        tokensPerGame[gameId].push(tokenId);\n    \n        return true;\n\n    }\n\n    function finishGame(uint256 gameId) public returns(bool) {\n\n        uint256 totalPlayers = gamePlayers[gameId].length;\n        Game memory currentGame = gameMap[gameId];\n\n        require(currentGame.active == true, \"Game is not active anymore\");\n\n        uint256 maxValue = currentGame.creatorAttributeValue;\n        \n        /*\n        1. Finding out the maximum attribute value\n        2. Changing the token in use status to false for all the participating tokens.\n        */\n        for(uint256 i = 0; i < totalPlayers; i++) {\n            if(attributePoints[gameId][i] > maxValue){\n                maxValue = attributePoints[gameId][i];\n            }\n            tokenInUse[tokensPerGame[gameId][i]] = false;\n        }\n\n        for(uint256 i = 0; i < totalPlayers; i++) {\n            if(attributePoints[gameId][i] == maxValue) {\n                winnerList[gameId].push(gamePlayers[gameId][i]);\n            }\n        }\n\n        uint256 totalNumWinners =  winnerList[gameId].length;\n        uint256 winningAmountPerWinner =  (totalPlayers)*(currentGame.poolMoney/(100*totalNumWinners))*(90);\n        uint256 platformFee = (totalPlayers)*(currentGame.poolMoney/100)*(10);\n\n\n        //Settlement for winners and platform - 10% fees to platform\n        for(uint256 i = 0; i < totalNumWinners; i++){\n            userBalance[winnerList[gameId][i]] = userBalance[winnerList[gameId][i]].add(winningAmountPerWinner);\n            // payable(winnerList[gameId][i]).transfer(winningAmountPerWinner);\n        }\n\n        // payable(_platform).transfer(platformFee);\n\n        currentGame.active == false;\n        gameMap[gameId] = currentGame;\n\n        return true;\n\n    }\n\n        function withdraw() public {\n        require(userBalance[msg.sender] > 0, \"No balance to withdraw\");\n        uint val = userBalance[msg.sender];\n        userBalance[msg.sender] = 0;\n        payable(address(uint160(msg.sender))).transfer(val);\n    }\n\n    function getAllGames() public view returns(Game[] memory) {\n            return games;\n    }\n\n    function gameData(uint256 gameId) public view returns(Game memory) {\n        return gameMap[gameId];\n    }\n\n    function contractBalance() public view returns(uint) {\n        return address(this).balance;\n    }\n}\n\n",
  "sourcePath": "/Users/riyasingh/myapps/battleofhufficorns/packages/contracts/contracts/Hufficorn.sol",
  "compiler": {
    "name": "solc",
    "version": "0.8.4+commit.c7e474f2.Emscripten.clang"
  },
  "schemaVersion": "3.2.3",
  "updatedAt": "2022-02-20T14:16:11.189Z",
  "devdoc": {
    "kind": "dev",
    "methods": {
      "approve(address,uint256)": {
        "details": "See {IERC721-approve}."
      },
      "balanceOf(address)": {
        "details": "See {IERC721-balanceOf}."
      },
      "getApproved(uint256)": {
        "details": "See {IERC721-getApproved}."
      },
      "grantContractOwnership(address)": {
        "details": "Owner can transfer the ownership of the contract to a new account (`_grantedOwner`). Can only be called by the current owner."
      },
      "isApprovedForAll(address,address)": {
        "details": "See {IERC721-isApprovedForAll}."
      },
      "name()": {
        "details": "See {IERC721Metadata-name}."
      },
      "owner()": {
        "details": "Returns the address of the current owner."
      },
      "ownerOf(uint256)": {
        "details": "See {IERC721-ownerOf}."
      },
      "renounceOwnership()": {
        "details": "Leaves the contract without owner. It will not be possible to call `onlyOwner` functions anymore. Can only be called by the current owner. NOTE: Renouncing ownership will leave the contract without an owner, thereby removing any functionality that is only available to the owner."
      },
      "safeTransferFrom(address,address,uint256)": {
        "details": "See {IERC721-safeTransferFrom}."
      },
      "safeTransferFrom(address,address,uint256,bytes)": {
        "details": "See {IERC721-safeTransferFrom}."
      },
      "setApprovalForAll(address,bool)": {
        "details": "See {IERC721-setApprovalForAll}."
      },
      "supportsInterface(bytes4)": {
        "details": "See {IERC165-supportsInterface}."
      },
      "symbol()": {
        "details": "See {IERC721Metadata-symbol}."
      },
      "tokenURI(uint256)": {
        "details": "See {IERC721Metadata-tokenURI}."
      },
      "transferFrom(address,address,uint256)": {
        "details": "See {IERC721-transferFrom}."
      },
      "transferOwnership(address)": {
        "details": "Transfers ownership of the contract to a new account (`newOwner`). Can only be called by the current owner."
      }
    },
    "version": 1
  },
  "userdoc": {
    "kind": "user",
    "methods": {},
    "version": 1
  }
}